{
  "_format": "hh-sol-artifact-1",
  "contractName": "NFTMarket",
  "sourceName": "contracts/NFTMarket.sol",
  "abi": [
    {
      "inputs": [],
      "stateMutability": "nonpayable",
      "type": "constructor"
    },
    {
      "anonymous": false,
      "inputs": [
        {
          "indexed": true,
          "internalType": "uint256",
          "name": "itemId",
          "type": "uint256"
        },
        {
          "indexed": true,
          "internalType": "address",
          "name": "nftContract",
          "type": "address"
        },
        {
          "indexed": true,
          "internalType": "uint256",
          "name": "tokenId",
          "type": "uint256"
        },
        {
          "indexed": false,
          "internalType": "address payable",
          "name": "seller",
          "type": "address"
        },
        {
          "indexed": false,
          "internalType": "address payable",
          "name": "owner",
          "type": "address"
        },
        {
          "indexed": false,
          "internalType": "uint256",
          "name": "price",
          "type": "uint256"
        },
        {
          "indexed": false,
          "internalType": "bool",
          "name": "sold",
          "type": "bool"
        }
      ],
      "name": "MarketItemCreated",
      "type": "event"
    },
    {
      "inputs": [
        {
          "internalType": "address",
          "name": "nftContract",
          "type": "address"
        },
        {
          "internalType": "uint256",
          "name": "tokenId",
          "type": "uint256"
        },
        {
          "internalType": "uint256",
          "name": "price",
          "type": "uint256"
        }
      ],
      "name": "createMarketItem",
      "outputs": [],
      "stateMutability": "payable",
      "type": "function"
    },
    {
      "inputs": [
        {
          "internalType": "address",
          "name": "nftContract",
          "type": "address"
        },
        {
          "internalType": "uint256",
          "name": "itemId",
          "type": "uint256"
        }
      ],
      "name": "createMarketSale",
      "outputs": [],
      "stateMutability": "payable",
      "type": "function"
    },
    {
      "inputs": [],
      "name": "fetchCreatedByMyself",
      "outputs": [
        {
          "components": [
            {
              "internalType": "uint256",
              "name": "itemId",
              "type": "uint256"
            },
            {
              "internalType": "address",
              "name": "nftContract",
              "type": "address"
            },
            {
              "internalType": "uint256",
              "name": "tokenId",
              "type": "uint256"
            },
            {
              "internalType": "address payable",
              "name": "seller",
              "type": "address"
            },
            {
              "internalType": "address payable",
              "name": "owner",
              "type": "address"
            },
            {
              "internalType": "uint256",
              "name": "price",
              "type": "uint256"
            },
            {
              "internalType": "bool",
              "name": "sold",
              "type": "bool"
            }
          ],
          "internalType": "struct NFTMarket.MarketItem[]",
          "name": "",
          "type": "tuple[]"
        }
      ],
      "stateMutability": "view",
      "type": "function"
    },
    {
      "inputs": [],
      "name": "fetchMarketItems",
      "outputs": [
        {
          "components": [
            {
              "internalType": "uint256",
              "name": "itemId",
              "type": "uint256"
            },
            {
              "internalType": "address",
              "name": "nftContract",
              "type": "address"
            },
            {
              "internalType": "uint256",
              "name": "tokenId",
              "type": "uint256"
            },
            {
              "internalType": "address payable",
              "name": "seller",
              "type": "address"
            },
            {
              "internalType": "address payable",
              "name": "owner",
              "type": "address"
            },
            {
              "internalType": "uint256",
              "name": "price",
              "type": "uint256"
            },
            {
              "internalType": "bool",
              "name": "sold",
              "type": "bool"
            }
          ],
          "internalType": "struct NFTMarket.MarketItem[]",
          "name": "",
          "type": "tuple[]"
        }
      ],
      "stateMutability": "view",
      "type": "function"
    },
    {
      "inputs": [],
      "name": "fetchMyNFTs",
      "outputs": [
        {
          "components": [
            {
              "internalType": "uint256",
              "name": "itemId",
              "type": "uint256"
            },
            {
              "internalType": "address",
              "name": "nftContract",
              "type": "address"
            },
            {
              "internalType": "uint256",
              "name": "tokenId",
              "type": "uint256"
            },
            {
              "internalType": "address payable",
              "name": "seller",
              "type": "address"
            },
            {
              "internalType": "address payable",
              "name": "owner",
              "type": "address"
            },
            {
              "internalType": "uint256",
              "name": "price",
              "type": "uint256"
            },
            {
              "internalType": "bool",
              "name": "sold",
              "type": "bool"
            }
          ],
          "internalType": "struct NFTMarket.MarketItem[]",
          "name": "",
          "type": "tuple[]"
        }
      ],
      "stateMutability": "view",
      "type": "function"
    },
    {
      "inputs": [],
      "name": "getListingPrice",
      "outputs": [
        {
          "internalType": "uint256",
          "name": "",
          "type": "uint256"
        }
      ],
      "stateMutability": "view",
      "type": "function"
    },
    {
      "inputs": [],
      "name": "listingPrice",
      "outputs": [
        {
          "internalType": "uint256",
          "name": "",
          "type": "uint256"
        }
      ],
      "stateMutability": "view",
      "type": "function"
    },
    {
      "inputs": [],
      "name": "owner",
      "outputs": [
        {
          "internalType": "address payable",
          "name": "",
          "type": "address"
        }
      ],
      "stateMutability": "view",
      "type": "function"
    }
  ],
  "bytecode": "0x60806040526658d15e1762800060045534801561001b57600080fd5b506001600055600380546001600160a01b03191633179055610ca3806100426000396000f3fe60806040526004361061007b5760003560e01c80638da5cb5b1161004e5780638da5cb5b146100f4578063c23b139e1461012c578063c78f19f91461013f578063d6ff785f1461015557600080fd5b80630f08efe01461008057806312e85585146100ab578063202e3740146100ca57806358eb2df5146100df575b600080fd5b34801561008c57600080fd5b5061009561016a565b6040516100a29190610b79565b60405180910390f35b3480156100b757600080fd5b506004545b6040519081526020016100a2565b3480156100d657600080fd5b506100956102e8565b6100f26100ed366004610b47565b6104aa565b005b34801561010057600080fd5b50600354610114906001600160a01b031681565b6040516001600160a01b0390911681526020016100a2565b6100f261013a366004610b1e565b6106f3565b34801561014b57600080fd5b506100bc60045481565b34801561016157600080fd5b5061009561090e565b6060600061017760025490565b6001546101849190610c25565b905060008167ffffffffffffffff8111156101af57634e487b7160e01b600052604160045260246000fd5b6040519080825280602002602001820160405280156101e857816020015b6101d5610ac6565b8152602001906001900390816101cd5790505b5090506000805b838110156102df576000818152600560205260409020600401546001600160a01b03161561021c576102cd565b600081815260056020818152604092839020835160e0810185528154815260018201546001600160a01b0390811693820193909352600282015494810194909452600381015482166060850152600481015490911660808401529081015460a0830152600681015460ff16151560c083015284519091908590859081106102b357634e487b7160e01b600052603260045260246000fd5b60209081029190910101526102c9600184610c0d565b9250505b806102d781610c3c565b9150506101ef565b50909392505050565b60606000806102f660015490565b905060005b600154811015610347576000818152600560205260409020600401546001600160a01b031633141561033557610332600184610c0d565b92505b8061033f81610c3c565b9150506102fb565b5060008167ffffffffffffffff81111561037157634e487b7160e01b600052604160045260246000fd5b6040519080825280602002602001820160405280156103aa57816020015b610397610ac6565b81526020019060019003908161038f5790505b5090506000805b6001548110156104a0576000818152600560205260409020600401546001600160a01b031633141561048e57600081815260056020818152604092839020835160e0810185528154815260018201546001600160a01b0390811693820193909352600282015494810194909452600381015482166060850152600481015490911660808401529081015460a0830152600681015460ff16151560c0830152845190919085908590811061047457634e487b7160e01b600052603260045260246000fd5b602090810291909101015261048a600184610c0d565b9250505b8061049881610c3c565b9150506103b1565b5090949350505050565b600260005414156105025760405162461bcd60e51b815260206004820152601f60248201527f5265656e7472616e637947756172643a207265656e7472616e742063616c6c0060448201526064015b60405180910390fd5b6002600055806105545760405162461bcd60e51b815260206004820152601c60248201527f5072696365206d757374206265206174206c656173742031207765690000000060448201526064016104f9565b60045434146105b15760405162461bcd60e51b8152602060048201526024808201527f5072696365206d75737420626520657175616c20746f206c697374696e6720706044820152637269636560e01b60648201526084016104f9565b60006105bc60015490565b6040805160e0810182528281526001600160a01b0387811660208084018281528486018a8152336060870181815260006080890181815260a08a018e815260c08b018381528d8452600598899052928c90209a518b55955160018b018054918b166001600160a01b0319928316179055945160028b0155915160038a018054918a1691861691909117905590516004808a01805492909916919094161790965591519286019290925592516006909401805494151560ff199095169490941790935592516323b872dd60e01b81529182015230602482015260448101869052919250906323b872dd90606401600060405180830381600087803b1580156106c257600080fd5b505af11580156106d6573d6000803e3d6000fd5b505050506106e8600180546001019055565b505060016000555050565b600260005414156107465760405162461bcd60e51b815260206004820152601f60248201527f5265656e7472616e637947756172643a207265656e7472616e742063616c6c0060448201526064016104f9565b60026000818155828152600560208190526040909120908101549101543482146107da576040805162461bcd60e51b81526020600482015260248101919091527f506c65617365207375626d6974207468652061736b696e67207072696365206960448201527f6e206f7264657220746f20636f6d706c6574652074686520707572636861736560648201526084016104f9565b6000838152600560205260408082206003015490516001600160a01b039091169184156108fc02918591818181858888f19350505050158015610821573d6000803e3d6000fd5b506040516323b872dd60e01b8152306004820152336024820152604481018290526001600160a01b038516906323b872dd90606401600060405180830381600087803b15801561087057600080fd5b505af1158015610884573d6000803e3d6000fd5b50505060008481526005602052604090206004810180546001600160a01b03191633179055600601805460ff19166001179055506108c6600280546001019055565b6003546004546040516001600160a01b039092169181156108fc0291906000818181858888f19350505050158015610902573d6000803e3d6000fd5b50506001600055505050565b606060008061091c60015490565b905060005b60015481101561096d576000818152600560205260409020600301546001600160a01b031633141561095b57610958600184610c0d565b92505b8061096581610c3c565b915050610921565b5060008167ffffffffffffffff81111561099757634e487b7160e01b600052604160045260246000fd5b6040519080825280602002602001820160405280156109d057816020015b6109bd610ac6565b8152602001906001900390816109b55790505b5090506000805b6001548110156104a0576000818152600560205260409020600301546001600160a01b0316331415610ab457600081815260056020818152604092839020835160e0810185528154815260018201546001600160a01b0390811693820193909352600282015494810194909452600381015482166060850152600481015490911660808401529081015460a0830152600681015460ff16151560c08301528451909190859085908110610a9a57634e487b7160e01b600052603260045260246000fd5b6020908102919091010152610ab0600184610c0d565b9250505b80610abe81610c3c565b9150506109d7565b6040805160e081018252600080825260208201819052918101829052606081018290526080810182905260a0810182905260c081019190915290565b80356001600160a01b0381168114610b1957600080fd5b919050565b60008060408385031215610b30578182fd5b610b3983610b02565b946020939093013593505050565b600080600060608486031215610b5b578081fd5b610b6484610b02565b95602085013595506040909401359392505050565b602080825282518282018190526000919060409081850190868401855b82811015610c0057815180518552868101516001600160a01b039081168887015286820151878701526060808301518216908701526080808301519091169086015260a0808201519086015260c09081015115159085015260e09093019290850190600101610b96565b5091979650505050505050565b60008219821115610c2057610c20610c57565b500190565b600082821015610c3757610c37610c57565b500390565b6000600019821415610c5057610c50610c57565b5060010190565b634e487b7160e01b600052601160045260246000fdfea26469706673582212209a2831022040142ab0fe0b7a021849bf30c97693adfcf6a99fb70ba95ad31ef364736f6c63430008040033",
  "linkReferences": {},
  "deployedLinkReferences": {}
}